:020000040800F2
:1000000000000220211700086F1700087117000870
:100010007317000875170008771700080000000024
:100020000000000000000000000000007917000838
:100030007B170008000000007D170008C1140008AD
:10004000831700088517000887170008891700081C
:100050008B1700088D1700088F17000891170008EC
:1000600093170008951700089717000899170008BC
:100070009B1700089D1700089F170008A11700088C
:10008000A3170008A5170008A7170008A91700085C
:10009000AB170008AD170008AF170008B11700082C
:1000A000B3170008B5170008B7170008B9170008FC
:1000B000BB170008BD170008BF170008C1170008CC
:1000C000C3170008C5170008C7170008C91700089C
:1000D000CB170008CD170008CF170008D11700086C
:1000E000D3170008D5170008D7170008D91700083C
:1000F000DB170008DD170008DF170008E11700080C
:10010000E3170008E5170008E7170008E9170008DB
:10011000EB170008ED170008EF170008F1170008AB
:10012000F3170008F5170008F7170008F91700087B
:10013000FB170008FD170008FF170008011800084A
:100140000318000805180008071800080918000817
:100150000B1800080D1800080F18000811180008E7
:1001600013180008151800081718000819180008B7
:100170001B1800081D1800081F1800082118000887
:10018000231800082518000810B5054C237833B94A
:10019000044B13B10448AFF300800123237010BD5A
:1001A0008400002000000000B42B000808B5064BB6
:1001B0001BB106480649AFF300800648036813B137
:1001C000054B03B1984708BD00000000B42B0008A0
:1001D000880000208400002000000000154B002B48
:1001E00008BF134B9D46A3F5803A00218B460F466E
:1001F0001348144A121A02F087F80F4B002B00D054
:1002000098470E4B002B00D0984700200021044651
:100210000D4600200C490022002302F017F802F0DE
:100220004DF82046294601F027F802F019F800BFE2
:100230000000080000000220000000000000000094
:1002400084000020F40000208D22000880B500AF5B
:100250004FF480704FF0010100F07AFE4FF480708F
:100260004FF0000100F074FE80BD00BF80B485B087
:1002700000AF786039604FF00003FB604FF000037F
:10028000FB727B685B68FB60FB6823F0407323F4C0
:100290008073FB603B681B794FEA03223B681B6855
:1002A0001343FA681343FB607B68FA685A607B6803
:1002B0009B68FB60FA684FF2FD73CCF2FF031340BA
:1002C000FB603B681A693B68DB681A433B689B68C4
:1002D0001A433B685B794FEA43031343FA681343BD
:1002E000FB607B68FA689A607B68DB6AFB60FB688E
:1002F00023F47003FB603B681B7D03F1FF33DAB22C
:10030000FB7A1343FB72FB7A4FEA0353FA681343F9
:10031000FB607B68FA68DA6207F11407BD4680BCAF
:10032000704700BF80B483B000AF78607B684FF047
:1003300000021A607B684FF000021A717B684FF070
:1003400000025A717B684FF000029A607B684FF0A0
:100350000002DA607B684FF000021A617B684FF0A0
:1003600001021A7507F10C07BD4680BC704700BF3B
:1003700080B485B000AF78604FF00003FB604FF4AD
:100380000C53C4F201035B68FB60FA6843F2E003BC
:10039000CFF6FC731340FB607B681A687B685B6870
:1003A0001A437B689B681A437B68DB681343FA68CF
:1003B0001343FB604FF40C53C4F20103FA685A6014
:1003C00007F11407BD4680BC704700BF80B483B0FE
:1003D00000AF78607B684FF000021A607B684FF0D6
:1003E00000025A607B684FF000029A607B684FF011
:1003F0000002DA6007F10C07BD4680BC704700BF01
:1004000080B483B000AF78600B46FB70FB78002BA4
:1004100006D07B689B6843F001027B689A6005E028
:100420007B689B6823F001027B689A6007F10C07E8
:10043000BD4680BC704700BF80B485B000AF786017
:10044000F970BA707B704FF00003FB604FF000034F
:10045000BB60FB78092B27D97B68DB68FB60FA78E7
:1004600013464FEA43039B18A3F11E034FF0070204
:1004700002FA03F3BB60BB686FEA0303FA68134038
:10048000FB607978FA7813464FEA43039B18A3F18F
:100490001E0301FA03F3BB60FA68BB681343FB60F9
:1004A0007B68FA68DA6022E07B681B69FB60FA7897
:1004B00013464FEA43039B184FF0070202FA03F377
:1004C000BB60BB686FEA0303FA681340FB6079788E
:1004D000FA7813464FEA43039B1801FA03F3BB6013
:1004E000FA68BB681343FB607B68FA681A61BB78E3
:1004F000062B27D87B685B6BFB60BB7803F1FF3270
:1005000013464FEA83039B184FF01F0202FA03F3CE
:10051000BB60BB686FEA0303FA681340FB60F978BD
:10052000BB7803F1FF3213464FEA83039B1801FAAD
:1005300003F3BB60FA68BB681343FB607B68FA682F
:100540005A6351E0BB780C2B27D87B681B6BFB6090
:10055000BA7813464FEA83039B18A3F123034FF0A5
:100560001F0202FA03F3BB60BB686FEA0303FA6879
:100570001340FB60F978BA7813464FEA83039B185F
:10058000A3F1230301FA03F3BB60FA68BB681343CA
:10059000FB607B68FA681A6326E07B68DB6AFB60B5
:1005A000BA7813464FEA83039B18A3F141034FF037
:1005B0001F0202FA03F3BB60BB686FEA0303FA6829
:1005C0001340FB60F978BA7813464FEA83039B180F
:1005D000A3F1410301FA03F3BB60FA68BB6813435C
:1005E000FB607B68FA68DA6207F11407BD4680BCDD
:1005F000704700BF80B483B000AF78607B689B68B1
:1006000043F080427B689A6007F10C07BD4680BCCE
:10061000704700BF80B483B000AF78600B46FB70BA
:10062000FB78002B06D07B689B6843F480727B6864
:100630009A6005E07B689B6823F480727B689A600F
:1006400007F10C07BD4680BC704700BF80B483B083
:1006500000AF78600B46FB70FB78002B06D07B6800
:100660009B6843F400727B689A6005E07B689B6836
:1006700023F400727B689A6007F10C07BD4680BCCA
:10068000704700BF80B483B000AF78607B681B68A0
:1006900023F001027B681A607B684FF000021A6049
:1006A0007B684FF000025A607B684FF000029A604E
:1006B0007B684FF00002DA607B684FF000021A613D
:1006C0007B684FF021025A617A6846F21003C4F247
:1006D00002039A4207D14FF4C043C4F202034FF021
:1006E0003D029A60EBE07A6846F22803C4F2020306
:1006F0009A4207D14FF4C043C4F202034FF474622C
:100700009A60DCE07A6846F24003C4F202039A423F
:1007100007D14FF4C043C4F202034FF474129A603D
:10072000CDE07A6846F25803C4F202039A4207D138
:100730004FF4C043C4F202034FF074629A60BEE00B
:100740007A6846F27003C4F202039A4209D14FF468
:10075000C043C4F202034FF03D02C2F20002DA606D
:10076000ADE07A6846F28803C4F202039A4209D1E6
:100770004FF4C043C4F202034FF47462C2F20002A9
:10078000DA609CE07A6846F2A003C4F202039A425F
:1007900009D14FF4C043C4F202034FF00002C2F289
:1007A0003D02DA608BE07A6846F2B803C4F20203D5
:1007B0009A4207D14FF4C043C4F202034FF03D52B6
:1007C000DA607CE07A6846F21043C4F202039A428F
:1007D00007D14FF4C843C4F202034FF03D029A60C0
:1007E0006DE07A6846F22843C4F202039A4207D1C8
:1007F0004FF4C843C4F202034FF474629A605EE09F
:100800007A6846F24043C4F202039A4207D14FF499
:10081000C843C4F202034FF474129A604FE07A683E
:1008200046F25843C4F202039A4207D14FF4C84338
:10083000C4F202034FF074629A6040E07A6846F2B4
:100840007043C4F202039A4209D14FF4C843C4F280
:1008500002034FF03D02C2F20002DA602FE07A6834
:1008600046F28843C4F202039A4209D14FF4C843C6
:10087000C4F202034FF47462C2F20002DA601EE0B6
:100880007A6846F2A043C4F202039A4209D14FF4B7
:10089000C843C4F202034FF00002C2F23D02DA6024
:1008A0000DE07A6846F2B843C4F202039A4206D1D8
:1008B0004FF4C843C4F202034FF03D52DA6007F12F
:1008C0000C07BD4680BC704780B485B000AF78602F
:1008D00039604FF00003FB607B681B68FB60FA68BF
:1008E00048F23F03CFF21C031340FB603B681A68D9
:1008F0003B68DB681A433B685B691A433B689B694A
:100900001A433B68DB691A433B681B6A1A433B681E
:100910005B6A1A433B689B6A1A433B685B6B1A43EA
:100920003B689B6B1343FA681343FB607B68FA6870
:100930001A607B685B69FB60FB6823F00703FB6060
:100940003B68DA6A3B681B6B1343FA681343FB602E
:100950007B68FA685A613B681A697B685A603B6831
:100960005A687B689A603B689A687B68DA6007F12E
:100970001407BD4680BC704780B483B000AF786078
:100980007B684FF000021A607B684FF000025A60EB
:100990007B684FF000029A607B684FF00002DA60DB
:1009A0007B684FF000021A617B684FF000025A61C9
:1009B0007B684FF000029A617B684FF00002DA61B9
:1009C0007B684FF000021A627B684FF000025A62A7
:1009D0007B684FF000029A627B684FF00002DA6297
:1009E0007B684FF000021A637B684FF000025A6385
:1009F0007B684FF000029A6307F10C07BD4680BC8C
:100A0000704700BF80B483B000AF78600B46FB70C6
:100A1000FB78002B06D07B681B6843F001027B68E3
:100A20001A6005E07B681B6823F001027B681A608E
:100A300007F10C07BD4680BC704700BF80B487B08B
:100A400000AF786039604FF000037B614FF0000326
:100A50003B614FF00003FB604FF000037B6186E0D9
:100A60007B694FF0010202FA03F33B613B681A68AD
:100A70003B691340FB60FA683B699A4273D17B681B
:100A80001A687B694FEA43034FF0030101FA03F34D
:100A90006FEA03031A407B681A607B681A683B6838
:100AA0001B7919467B694FEA430301FA03F31A43A2
:100AB0007B681A603B681B79012B03D03B681B796C
:100AC000022B34D17B689A687B694FEA43034FF06D
:100AD000030101FA03F36FEA03031A407B689A608B
:100AE0007B689A683B685B7919467B694FEA4303E8
:100AF00001FA03F31A437B689A607B685A687B6942
:100B00009BB24FF0010101FA03F36FEA03031A40AD
:100B10007B685A607B685A683B689B7919467B6999
:100B20009BB201FA03F39BB21A437B685A607B685D
:100B3000DA687B699BB24FEA43034FF0030101FA85
:100B400003F36FEA03031A407B68DA607B68DA68B4
:100B50003B68DB7919467B694FEA430301FA03F3EB
:100B60001A437B68DA607B6903F101037B617B696F
:100B70000F2B7FF675AF07F11C07BD4680BC704791
:100B800080B483B000AF78607B684FF6FF721A6064
:100B90007B684FF000021A717B684FF000025A71B7
:100BA0007B684FF000029A717B684FF00002DA71A7
:100BB00007F10C07BD4680BC704700BF80B483B00E
:100BC00000AF78600B467B807B685A697B885A400F
:100BD0007B685A6107F10C07BD4680BC704700BFB7
:100BE00080B485B000AF786013460A467A807B7087
:100BF0004FF00003FB604FF00003BB607A787B8806
:100C000003F007034FEA830302FA03F3FB607B88D8
:100C10004FEAD3039BB21A467B884FEAD3039BB2B9
:100C200019467B6801F1080153F821107B8803F015
:100C300007034FEA83034FF00F0000FA03F36FEA54
:100C4000030319407B6802F1080243F822107B88F5
:100C50004FEAD3039BB21A467B6802F1080253F8AD
:100C60002220FB681343BB607B884FEAD3039BB20F
:100C70001A467B6802F10802B96843F8221007F1AE
:100C80001407BD4680BC704780B489B000AF78605F
:100C90004FF00003BB614FF000037B614FF0000396
:100CA000FB614FF002033B614FF00003FB604FF02C
:100CB0000203BB604FF46053C4F202039B6803F06D
:100CC0000C03BB61BB69042B0AD0082B0FD0002B8F
:100CD00060D17A684FF41053C0F2F403136060E0FF
:100CE0007A684FF49053C0F27A03136059E04FF4DE
:100CF0006053C4F202035B6803F480034FEA93532A
:100D0000FB604FF46053C4F202035B6803F03F03DF
:100D1000BB60FB68002B14D04FF49053C0F27A03F1
:100D2000BA68B3FBF2F24FF46053C4F2020359689D
:100D300047F6C0730B404FEA931303FB02F3FB61CA
:100D400013E04FF41053C0F2F403BA68B3FBF2F2AD
:100D50004FF46053C4F20203596847F6C0730B4066
:100D60004FEA931303FB02F3FB614FF46053C4F2A9
:100D700002035B6803F440334FEA134303F10103BA
:100D80004FEA43033B61FA693B69B2FBF3F27B68CC
:100D90001A6006E07A684FF41053C0F2F40313604F
:100DA00000BF4FF46053C4F202039B6803F0F003EA
:100DB000BB61BB694FEA1313BB6140F20003C2F28F
:100DC0000003BA699B181B78DBB27B617B681A68E9
:100DD0007B6922FA03F27B685A604FF46053C4F2D5
:100DE00002039B6803F4E053BB61BB694FEA9323A2
:100DF000BB6140F20003C2F20003BA699B181B7882
:100E0000DBB27B617B685A687B6922FA03F27B68FC
:100E10009A604FF46053C4F202039B6803F460438A
:100E2000BB61BB694FEA5333BB6140F20003C2F2BE
:100E30000003BA699B181B78DBB27B617B685A6838
:100E40007B6922FA03F27B68DA6007F12407BD466A
:100E500080BC704780B483B000AF78600B46FB70F5
:100E6000FB78002B0CD04FF46053C4F202034FF414
:100E70006052C4F20202116B7A680A431A630DE0F1
:100E80004FF46053C4F202034FF46052C4F2020202
:100E9000116B7A686FEA02020A401A6307F10C07C5
:100EA000BD4680BC704700BF80B483B000AF78609F
:100EB0000B46FB70FB78002B0CD04FF46053C4F250
:100EC00002034FF46052C4F20202116C7A680A43C2
:100ED0001A640DE04FF46053C4F202034FF4605201
:100EE000C4F20202116C7A686FEA02020A401A64C4
:100EF00007F10C07BD4680BC704700BF80B483B0CB
:100F000000AF78600B46FB70FB78002B0CD04FF4E1
:100F10006053C4F202034FF46052C4F20202516CF7
:100F20007A680A435A640DE04FF46053C4F2020336
:100F30004FF46052C4F20202516C7A686FEA020206
:100F40000A405A6407F10C07BD4680BC704700BFD9
:100F500080B483B000AF78600B46FB70FB78002B49
:100F60000CD04FF46053C4F202034FF46052C4F249
:100F70000202516A7A680A435A620DE04FF46053E4
:100F8000C4F202034FF46052C4F20202516A7A685A
:100F90006FEA02020A405A6207F10C07BD4680BCA4
:100FA000704700BF80B58AB000AF786039604FF0FD
:100FB00000037B624FF000033B624FF00003FB61D4
:100FC0004FF00003BB617B681B8A9BB27B627B6A2C
:100FD00023F440537B623B68DB887A6A13437B626D
:100FE0007B6A9AB27B681A827B689B899BB27B6220
:100FF0007B6A23F4B05323F00C037B623B689A882E
:101000003B681B8913439AB23B685B8913439BB2CD
:101010007A6A13437B627B6A9AB27B689A817B68A7
:101020009B8A9BB27B627B6A23F440737B623B6842
:101030009B897A6A13437B627B6A9AB27B689A8245
:1010400007F108031846FFF71FFE7A684FF4805334
:10105000C4F201039A4206D07A684FF4A053C4F256
:1010600001039A4202D17B693B6201E03B693B622A
:101070007B689B899BB29BB21BB2002B0FDA3A6A4A
:1010800013464FEA83039B184FEA83029A183B6882
:101090001B684FEA4303B2FBF3F3FB610EE03A6ACD
:1010A00013464FEA83039B184FEA83029A183B6862
:1010B0001B684FEA8303B2FBF3F3FB61FA6948F262
:1010C0001F53C5F2EB13A3FB02134FEA53134FEA6E
:1010D00003137B627B6A4FEA13134FF0640202FB37
:1010E00003F3FA69D31ABB617B689B899BB29BB2FD
:1010F0001BB2002B12DABB694FEAC30303F13202C1
:1011000048F21F53C5F2EB13A3FB02134FEA53132C
:1011100003F007037A6A13437B6211E0BB694FEA6D
:10112000031303F1320248F21F53C5F2EB13A3FB82
:1011300002134FEA531303F00F037A6A13437B62DF
:101140007B6A9AB27B681A8107F12807BD4680BD89
:1011500080B483B000AF78600B46FB70FB78002B47
:1011600008D07B689B899BB243F400539AB27B689A
:101170009A8107E07B689B899BB223F400539AB263
:101180007B689A8107F10C07BD4680BC704700BFA1
:1011900080B483B000AF78600B467B807B884FEAD9
:1011A000C3534FEAD3539AB27B689A8007F10C0776
:1011B000BD4680BC704700BF80B483B000AF03461B
:1011C0003960FB7197F90730002B10DA4FF46D434B
:1011D000CEF20003FA7902F00F02A2F104013A689C
:1011E000D2B24FEA0212D2B25B181A760DE04FF477
:1011F0006143CEF2000397F907103A68D2B24FEA82
:101200000212D2B25B1883F8002307F10C07BD4627
:1012100080BC704780B582B000AF78607A686FF0AC
:101220007F439A4202D94FF001031FE04EF21003B0
:10123000CEF200037A6822F07F4202F1FF325A6058
:101240004FF0FF304FF00F01FFF7B6FF4EF21003E3
:10125000CEF200034FF000029A604EF21003CEF27D
:1012600000034FF007021A604FF00003184607F121
:101270000807BD4680BD00BF80B586B000AF00F056
:10128000D7FA40F21003C2F200031A6844F6D353AF
:10129000C1F26203A3FB02134FEA93131846FFF750
:1012A000B9FF3B461846FFF7EFFC00F08DF800F061
:1012B00023F94FF48840C4F2000042F65431C0F6DE
:1012C000000100F0D9F800F03BF940F2AC03C2F2A3
:1012D00000034FF064021A8000BF40F2AC03C2F278
:1012E00000031B889BB2002BF7D140F2A803C2F287
:1012F00000031B88184600F009FD02460B46104605
:1013000019462FA3D3E9002300F066FD02460B46E1
:101310001046194600F072FF0346A3F164037B6197
:1013200040F2A803C2F200035B88184600F0EEFC0E
:1013300002460B461046194621A3D3E9002300F0CC
:101340004BFD02460B461046194600F057FF034678
:10135000A3F164033B617B6913F1090F05DB7B6932
:10136000092B02DC4FF000037B613B6913F10E0F88
:1013700005DB3B690E2B02DC4FF000033B6140F2C2
:10138000B000C2F2000042F65C31C0F600017A699A
:101390003B6900F0C1FF4FF48840C4F2000040F206
:1013A000B001C2F2000100F067F84FF44060C4F2EF
:1013B00002004FF47041FFF701FC86E7AFF30080B5
:1013C000199001199001A93F80B586B000AF4FF484
:1013D00000304FF00101FFF767FD4FF001004FF0C3
:1013E0000101FFF737FD4FF004033B614FF00203AB
:1013F0003B754FF002037B754FF00003BB754FF058
:101400000103FB7507F110034FF00000C4F2020066
:101410001946FFF713FB4FF00000C4F202004FF033
:1014200002014FF00702FFF7DBFB4FF4E1333B60B3
:101430004FF00003BB804FF00003FB804FF0000330
:101440003B814FF00003BB814FF008037B813B469B
:101450004FF48840C4F200001946FFF7A3FD4FF493
:101460008840C4F200004FF00101FFF771FE07F160
:101470001807BD4680BD00BF80B582B000AF786060
:10148000396014E000BF7B681B889BB203F0400307
:10149000002BF8D03B681B78DBB278681946FFF761
:1014A00077FE3B681B783B6803F101033B603B68B8
:1014B0001B78DBB2002BE5D107F10807BD4680BDE4
:1014C00080B400AF40F2AC03C2F200031B889BB2B1
:1014D000002B0DD040F2AC03C2F200031B889BB27C
:1014E00003F1FF339AB240F2AC03C2F200031A8058
:1014F000BD4680BC704700BF80B582B000AF4FF0E2
:1015000008004FF00101FFF7A5FC4FF246033B60D6
:101510004FF001033B714FF00003BB714FF0030329
:101520007B714FF00003FB713B464FF44060C4F207
:1015300002001946FFF782FA07F10807BD4680BD91
:1015400080B59CB000AF07F168031846FFF718FBA1
:1015500007F150031846FEF7E5FE07F14003184671
:10156000FEF734FF07F104031846FFF705FA4FF4BE
:1015700080704FF00101FFF7C1FC4FF004004FF005
:101580000101FFF767FC4FF480004FF00101FFF706
:1015900061FC4FF00603BB664FF0030387F86C3025
:1015A0004FF0000387F86F3007F168034FF40060D5
:1015B000C4F202001946FFF741FA46F27040C4F245
:1015C0000200FFF75FF84FF000037B6042F24C032C
:1015D000C4F20103BB6040F2A803C2F20003FB6047
:1015E0004FF000033B614FF002037B614FF00003BB
:1015F000BB614FF48063FB614FF400633B624FF4C7
:1016000000537B624FF48073BB624FF40033FB6284
:101610004FF000033B634FF001037B634FF0000387
:10162000BB634FF00003FB6307F1040346F2704015
:10163000C4F202001946FFF747F946F27040C4F2BF
:1016400002004FF00101FFF7DDF9FEF7FFFD4FF05B
:1016500000033B664FF000033B654FF0010387F842
:1016600055304FF00003FB654FF0020387F86430FC
:101670004FF0010387F8543007F150034FF4005046
:10168000C4F201001946FEF7F1FD4FF000033B6480
:101690004FF000037B644FF00003FB644FF0000346
:1016A000BB6407F140031846FEF762FE4FF400509A
:1016B000C4F201004FF00B014FF001024FF007039D
:1016C000FEF7BAFE4FF40050C4F201004FF00C01D7
:1016D0004FF002024FF00703FEF7AEFE4FF400504A
:1016E000C4F201004FF00101FEF7B0FF4FF40050CB
:1016F000C4F201004FF00101FEF78CFF4FF40050DF
:10170000C4F201004FF00101FEF77AFE4FF40050E1
:10171000C4F20100FEF76EFF07F17007BD4680BD01
:101720000749084A084B9A42BEBF51F8040B42F8D9
:10173000040BFFF7F8BF0548804705480047000045
:10174000C02B000800000020840000203118000891
:10175000DD0100083449354A002300F002B841F8A1
:10176000043B9142FFF4FBAFFFF786FDFEE7FEE787
:10177000FEE7FEE7FEE7FEE7FEE7FEE7FEE7FEE741
:10178000FEE7FEE7FEE7FEE7FEE7FEE7FEE7FEE731
:10179000FEE7FEE7FEE7FEE7FEE7FEE7FEE7FEE721
:1017A000FEE7FEE7FEE7FEE7FEE7FEE7FEE7FEE711
:1017B000FEE7FEE7FEE7FEE7FEE7FEE7FEE7FEE701
:1017C000FEE7FEE7FEE7FEE7FEE7FEE7FEE7FEE7F1
:1017D000FEE7FEE7FEE7FEE7FEE7FEE7FEE7FEE7E1
:1017E000FEE7FEE7FEE7FEE7FEE7FEE7FEE7FEE7D1
:1017F000FEE7FEE7FEE7FEE7FEE7FEE7FEE7FEE7C1
:10180000FEE7FEE7FEE7FEE7FEE7FEE7FEE7FEE7B0
:10181000FEE7FEE7FEE7FEE7FEE7FEE7FEE7FEE7A0
:10182000FEE7FEE7FEE7000084000020F400002051
:1018300080B500AF4FF46D43CEF200034FF46D421C
:10184000CEF20002D2F8882042F47002C3F8882059
:101850004FF46053C4F202034FF46052C4F2020228
:10186000126842F001021A604FF46053C4F202039E
:101870004FF000029A604FF46053C4F202034FF439
:101880006052C4F20202126822F0847222F48032A2
:101890001A604FF46053C4F2020343F21002C2F222
:1018A00000425A604FF46053C4F202034FF4605296
:1018B000C4F20202126822F480221A604FF46053CC
:1018C000C4F202034FF00002DA6000F009F84FF4AE
:1018D0006D43CEF200034FF000629A6080BD00BFFE
:1018E00080B483B000AF4FF000037B604FF0000383
:1018F0003B604FF46053C4F202034FF46052C4F2F1
:101900000202126842F480321A604FF46053C4F24B
:1019100002031B6803F400333B607B6803F101039F
:101920007B603B68002B03D17B68B3F5C06FECD1C3
:101930004FF46053C4F202031B6803F40033002B1E
:1019400003D04FF001033B6002E04FF000033B6027
:101950003B68012B40F082804FF46053C4F20203D5
:101960004FF46052C4F20202126C42F080521A64C8
:101970004FF4E043C4F200034FF4E042C4F200022B
:10198000126842F480421A604FF46053C4F20203BA
:101990004FF46052C4F2020292689A604FF46053AE
:1019A000C4F202034FF46052C4F20202926842F49D
:1019B00000429A604FF46053C4F202034FF4605245
:1019C000C4F20202926842F4A0529A604FF460534B
:1019D000C4F2020345F20842C0F640025A604FF4D6
:1019E0006053C4F202034FF46052C4F20202126860
:1019F00042F080721A6000BF4FF46053C4F20203D9
:101A00001B6803F00073002BF6D04FF47053C4F240
:101A1000020340F205621A604FF46053C4F20203FD
:101A20004FF46052C4F20202926822F003029A60FC
:101A30004FF46053C4F202034FF46052C4F2020246
:101A4000926842F002029A6000BF4FF46053C4F201
:101A500002039B6803F00C03082BF6D107F10C0777
:101A6000BD4680BC704700BF81F0004102E000BF6E
:101A700083F0004330B54FEA41044FEA430594EA4E
:101A8000050F08BF90EA020F1FBF54EA000C55EA89
:101A9000020C7FEA645C7FEA655C00F0E2804FEA5A
:101AA0005454D4EB5555B8BF6D420CDD2C4480EA3C
:101AB000020281EA030382EA000083EA010180EA6C
:101AC000020281EA0303362D88BF30BD11F0004FBA
:101AD0004FEA01314FF4801C4CEA113102D04042F0
:101AE00061EB410113F0004F4FEA03334CEA13332B
:101AF00002D0524263EB430394EA050F00F0A78043
:101B0000A4F10104D5F1200E0DDB02FA0EFC22FA3D
:101B100005F2801841F1000103FA0EF2801843FA31
:101B200005F359410EE0A5F120050EF1200E012A22
:101B300003FA0EFC28BF4CF0020C43FA05F3C01860
:101B400051EBE37101F0004507D54FF0000EDCF1D9
:101B5000000C7EEB00006EEB0101B1F5801F1BD382
:101B6000B1F5001F0CD349085FEA30004FEA3C0C86
:101B700004F101044FEA445212F5800F80F09A807C
:101B8000BCF1004F08BF5FEA500C50F1000041EB80
:101B9000045141EA050130BD5FEA4C0C404141EB84
:101BA000010111F4801FA4F10104E9D191F0000FAB
:101BB00004BF01460020B1FA81F308BF2033A3F12E
:101BC0000B03B3F120020CDA0C3208DD02F1140C25
:101BD000C2F10C0201FA0CF021FA02F10CE002F160
:101BE0001402D8BFC2F1200C01FA02F120FA0CFC59
:101BF000DCBF41EA0C019040E41AA2BF01EB0451A2
:101C0000294330BD6FEA04041F3C1CDA0C340EDC9F
:101C100004F11404C4F1200220FA04F001FA02F3E2
:101C200040EA030021FA04F345EA030130BDC4F1A0
:101C30000C04C4F1200220FA02F001FA04F340EA95
:101C40000300294630BD21FA04F0294630BD94F046
:101C5000000F83F4801306BF81F480110134013D2D
:101C60004EE77FEA645C18BF7FEA655C29D094EA9E
:101C7000050F08BF90EA020F05D054EA000C04BF1C
:101C80001946104630BD91EA030F1EBF0021002007
:101C900030BD5FEA545C05D14000494128BF41F0A6
:101CA000004130BD14F580043CBF01F5801130BD0A
:101CB00001F0004545F0FE4141F470014FF0000095
:101CC00030BD7FEA645C1ABF194610467FEA655C46
:101CD0001CBF0B46024650EA013406BF52EA0335E8
:101CE00091EA030F41F4002130BD00BF90F0000FD6
:101CF00004BF0021704730B54FF4806404F1320412
:101D00004FF000054FF0000150E700BF90F0000FCA
:101D100004BF0021704730B54FF4806404F13204F1
:101D200010F0004548BF40424FF000013EE700BFC1
:101D300042004FEAE2014FEA31014FEA02701FBF51
:101D400012F07F4393F07F4F81F06051704792F023
:101D5000000F14BF93F07F4F704730B54FF460749D
:101D600001F0004521F0004120E700BF50EA0102E8
:101D700008BF704730B54FF000050AE050EA010295
:101D800008BF704730B511F0004502D5404261EB05
:101D900041014FF4806404F132045FEA915C3FF446
:101DA000DCAE4FF003025FEADC0C18BF03325FEADF
:101DB000DC0C18BF033202EBDC02C2F1200300FA94
:101DC00003FC20FA02F001FA03FE40EA0E0021FAB9
:101DD00002F11444C1E600BF70B54FF0FF0C4CF4A3
:101DE000E06C1CEA11541DBF1CEA135594EA0C0F59
:101DF00095EA0C0F00F0DEF82C4481EA030621EA94
:101E00004C5123EA4C5350EA013518BF52EA0335CE
:101E100041F4801143F4801338D0A0FB02CE4FF080
:101E20000005E1FB02E506F00042E0FB03E54FF0B0
:101E30000006E1FB03569CF0000F18BF4EF0010EA8
:101E4000A4F1FF04B6F5007F64F5407404D25FEAA4
:101E50004E0E6D4146EB060642EAC62141EA555157
:101E60004FEAC52040EA5E504FEACE2EB4F1FD0C99
:101E700088BFBCF5E06F1ED8BEF1004F08BF5FEA17
:101E8000500E50F1000041EB045170BD06F00046C9
:101E900046EA010140EA020081EA0301B4EB5C0476
:101EA000C2BFD4EB0C0541EA045170BD41F480116E
:101EB0004FF0000E013C00F3AB8014F1360FDEBF93
:101EC000002001F0004170BDC4F10004203C35DA6F
:101ED0000C341BDC04F11404C4F1200500FA05F3F2
:101EE00020FA04F001FA05F240EA020001F0004293
:101EF00021F0004110EBD37021FA04F642EB060109
:101F00005EEA430E08BF20EAD37070BDC4F10C0432
:101F1000C4F1200500FA04F320FA05F001FA04F2F6
:101F200040EA020001F0004110EBD37041F10001E2
:101F30005EEA430E08BF20EAD37070BDC4F12005ED
:101F400000FA05F24EEA020E20FA04F301FA05F255
:101F500043EA020321FA04F001F0004121FA04F2FD
:101F600020EA020000EBD3705EEA430E08BF20EACD
:101F7000D37070BD94F0000F0FD101F00046400007
:101F800041EB010111F4801F08BF013CF7D041EA89
:101F9000060195F0000F18BF704703F0004652008D
:101FA00043EB030313F4801F08BF013DF7D043EA5E
:101FB0000603704794EA0C0F0CEA135518BF95EA14
:101FC0000C0F0CD050EA410618BF52EA4306D1D19B
:101FD00081EA030101F000414FF0000070BD50EABA
:101FE000410606BF1046194652EA430619D094EA44
:101FF0000C0F02D150EA013613D195EA0C0F05D12E
:1020000052EA03361CBF104619460AD181EA030181
:1020100001F0004141F0FE4141F470014FF0000039
:1020200070BD41F0FE4141F4780170BD70B54FF0D4
:10203000FF0C4CF4E06C1CEA11541DBF1CEA135554
:1020400094EA0C0F95EA0C0F00F0A7F8A4EB050436
:1020500081EA030E52EA03354FEA013100F088802D
:102060004FEA03334FF0805545EA131343EA1263F6
:102070004FEA022245EA111545EA10654FEA0026AB
:102080000EF000419D4208BF964244F1FD0404F564
:10209000407402D25B084FEA3202B61A65EB0305C0
:1020A0005B084FEA32024FF480104FF4002CB6EB7D
:1020B000020E75EB030E22BFB61A754640EA0C00FD
:1020C0005B084FEA3202B6EB020E75EB030E22BF3D
:1020D000B61A754640EA5C005B084FEA3202B6EB7E
:1020E000020E75EB030E22BFB61A754640EA9C003D
:1020F0005B084FEA3202B6EB020E75EB030E22BF0D
:10210000B61A754640EADC0055EA060E18D04FEACA
:10211000051545EA16754FEA06164FEAC30343EA6A
:1021200052734FEAC2025FEA1C1CC0D111F4801F37
:102130000BD141EA00014FF000004FF0004CB6E730
:1021400011F4801F04BF01430020B4F1FD0C88BFCF
:10215000BCF5E06F3FF6AFAEB5EB030C04BFB6EBDA
:10216000020C5FEA500C50F1000041EB045170BDCD
:102170000EF0004E4EEA113114EB5C04C2BFD4EBFA
:102180000C0541EA045170BD41F480114FF0000E7E
:10219000013C90E645EA060E8DE60CEA135594EAFA
:1021A0000C0F08BF95EA0C0F3FF43BAF94EA0C0FFD
:1021B0000AD150EA01347FF434AF95EA0C0F7FF472
:1021C00025AF104619462CE795EA0C0F06D152EAC6
:1021D00003353FF4FDAE1046194622E750EA4106AA
:1021E00018BF52EA43067FF4C5AE50EA41047FF4BB
:1021F0000DAF52EA43057FF4EBAE12E74FEA41021E
:1022000012F5001215D211D56FF47873B3EB625248
:1022100012D94FEAC12343F0004343EA505311F06F
:10222000004F23FA02F018BF404270474FF0000001
:10223000704750EA013005D111F0004008BF6FF03F
:10224000004070474FF00000704700BF10B5034CCE
:1022500014B1AFF3008010BD204610BD0000000097
:1022600008B5084B04461BB10021AFF3008001E024
:1022700000F00CF8044B1868836A03B198472046B5
:1022800000F05AFC000000007C2B000870B5094BE0
:10229000094CE41AA41003EB8406002502E07259ED
:1022A0009047013C043D002CF9D1BDE8704000F09E
:1022B0004BBC00BF800000208400002070B50E4B96
:1022C0000E4DED1AAD1000241E4603E056F82420F2
:1022D00090470134AC42F9D100F030FC084D094B75
:1022E000ED1AAD1000241E4603E056F82420904756
:1022F0000134AC42F9D170BD7C0000207C0000208C
:10230000800000207C0000208218034601E003F8D2
:10231000011B9342FBD170470EB400B59CB04FF443
:102320000271ADF814106FF000411DAB04910791DC
:102330004FF6FF71ADF81610084953F8042B0290C0
:1023400006900868019302A900F064F8029B00223D
:102350001A701CB05DF804EB03B0704778000020E1
:102360002DE9F8439368064689461446002B3BD175
:10237000928912F4906F37D0616923692768032529
:1023800002204D43FF1A95FBF0F5791C02F48062A0
:10239000A94212B2A8BF3D18304682B1294600F0CA
:1023A0000FFB804600B914E021693A4600F064FB57
:1023B000A38923F4906343F08003A3810CE01946C2
:1023C0002A4600F062FB804630B93046216900F0B1
:1023D000B5FA0C23336012E008EB07036561ED1BCF
:1023E000C4F810802360A560A368002B0FDD23686C
:1023F00003F8019B2360A368013BA36007E0A38966
:1024000043F04003A3814FF0FF30BDE8F883002084
:10241000BDE8F8832DE9F04F9DB0064603938B8904
:1024200003F080031BB20D46144663B10B6953B928
:10243000402100F0C5FA2860286110B90C233360F0
:10244000D6E040236B610023099320238DF82930C7
:10245000DFF8AC9130238DF82A3023469A4613F8E2
:10246000012B1AB9BAEB04080FD116E0252AF5D1D1
:10247000F8E7304614F80B102A46FFF771FF0130D9
:1024800000F0AF800BF1010B01E04FF0000BC345F2
:10249000EFDB099A02EB080309939AF80030002B4E
:1024A00000F09F8000234FF0FF32049307930592C2
:1024B00006938DF853301A930AF1010A4FF0010B7D
:1024C00005E04E4A801A0BFA00F003430493544689
:1024D0004A482178052200F0C1FA0AF1010A049B5A
:1024E0000028EED1D90602D520228DF853201A07F4
:1024F00002D52B228DF8532022782A2A03D0079B5D
:1025000021460A2010E0039A111D12680391002A47
:1025100001DB079204E0524243F002030792049366
:10252000013408E000FB03230C4601312278303AE5
:10253000092AF7D9079323782E2B19D163782A2BF0
:1025400009D1039B1A1D1B6803920234002BB8BFEC
:102550004FF0FF330BE0611C00230A2001E000FB79
:1025600003230C4601312278303A092AF7D9059322
:1025700023482178032200F071FA40B14023C9EBCF
:10258000000003FA00F0049B03430493013414F8A1
:10259000011B1C488DF82810062200F05FFA88B154
:1025A000194B33B9039B073323F007030833039315
:1025B00013E003AB0093304604A92A46134BAFF354
:1025C000008007E003AB0093304604A92A460F4B76
:1025D00000F08EF8431C074603D0099BDB190993D2
:1025E0003BE7AB8903F040031BB20BB9099801E04C
:1025F0004FF0FF301DB0BDE8F08F00BF802B00080A
:10260000862B00088A2B00080000000061230008C8
:102610002DE9F047154699468A680B69DDF820A038
:102620009A42A8BF13462B6091F8432080460C467F
:102630000AB101332B6023689A0602D52B68023356
:102640002B60266816F0060613D094F843602368C2
:10265000003618BF01269B0611D419E04046617E62
:102660004A46D047013003D14FF0FF30BDE8F08734
:102670000136E2682B68D31A9E42EFDBE5E7A31927
:10268000302283F8432094F84520023683F8442012
:10269000002708E0E319404693F843104A46D04724
:1026A0000130E1D00137B742F4DB23682A68E168E2
:1026B00003F00603042B08BFC2EB01052369A268DF
:1026C0000CBF25EAE57500259A42C4BFC3EB02039F
:1026D000ED18002606E04046A17E4A46D04701306C
:1026E000C2D00136AE42F6DB0020BDE8F087000024
:1026F0002DE9F0430C4685B0257E0C996E2D904651
:102700000746994604F1430200F0AC800FD8632DD0
:102710001DD006D8002D00F0BD80582D40F0CD8092
:102720004FE0642D1CD0692D40F0C78018E0732D58
:1027300000F0B48005D86F2D2BD0702D40F0BD80F7
:1027400043E0752D25D0782D40F0B78041E00B682F
:102750001A1D1B680A6004F1420684F84230B0E09A
:1027600020680B6810F0800F02D0181D086008E088
:1027700010F0400F03F10400086002D0B3F900101C
:1027800000E01968002945DA2D23494284F84330D6
:1027900040E020680B6810F0800F02D0181D086020
:1027A00007E010F0400F03F10400086001D0198821
:1027B00000E01968237E5F4D6F2B14BF0A230823A6
:1027C00024E084F845505B4D07E0236843F0200384
:1027D00023607823584D84F8453020680B6810F04A
:1027E000800F03F104060E6000D003E0410601D51E
:1027F000198800E01968C60744BF40F02000206037
:1028000019B9236823F0200323601023002084F8E3
:10281000430001E0474D0A236668002EA66003DBF3
:10282000206820F00400206001B96EB104F142007C
:10283000B1FBF3FE03FB1E110646695C00F80119AB
:1028400071460029F4D100E01646921B082B226144
:102850003CD12368D80739D56368934236DC01320E
:10286000626033E020680B6810F0800F05D0181DFF
:102870000860196863690B600CE010F0400F03F109
:102880000400086003D0196863690B8002E0616985
:102890001B68196000232361164617E00B681A1D98
:1028A0000A601E68304600F025F96368206198428E
:1028B00088BF23612369636005E004F1420684F860
:1028C000425001232361002384F84330CDF8009067
:1028D0003846214603AA4346FFF79AFE01300AD143
:1028E0004FF0FF3023E03846715D4246C847013063
:1028F000F6D0013500E0002523699D42F3DB236813
:1029000099070DD4E068039B9842B8BF18460EE0C3
:102910003846617E4246C8470130E1D0013500E0CB
:102920000025E268039BD31A9D42F1DBEAE705B07C
:10293000BDE8F083912B0008A22B000830B50029D8
:102940003BD051F8042C0B1F1C49002AB8BF9B1820
:102950000A6812B95A600B6030BD93420CD21968F4
:102960005818904203D15A588918426819605A6021
:10297000124A136030BD0A46516809B19942FAD92A
:10298000146815199D420AD11B68E318D0188842B3
:10299000136012D108681B1813604B680CE002D951
:1029A0000C23036030BD18681C188C4203D10C68DE
:1029B0004968001918605960536030BDA0000020BC
:1029C00070B5CD1C25F0030508350C2D38BF0C253E
:1029D000002D064629DB8D4200D226E01E4B1B68E7
:1029E0001C4612E02268521B0DD40B2A02D9226029
:1029F000A41812E0A34203D16368174A136018E0D9
:102A000062685A6015E023466468002CEAD11AE037
:102A1000CC1C24F003048C4201D1256009E030462F
:102A2000611A00F057F80130F7D10C233360002011
:102A300070BD04F10B00231D20F00700C31A0AD05B
:102A40005A42E25070BD2946304600F043F8431C1C
:102A50000146DDD1E9E770BDA000002010B5C9B284
:102A60000346821803E0047801338C4203D093427A
:102A70001846F8D1002010BD10B5002302E0CC5C50
:102A8000C45401339342FAD110BDF8B50646154639
:102A90000C4621B91146BDE8F840FFF791BF1AB9BD
:102AA000FFF74CFF2C4612E000F02CF8A8420ED2A3
:102AB00030462946FFF784FF074638B121462A46AB
:102AC000FFF7DAFF30462146FFF738FF3C46204645
:102AD000F8BD000038B5064C0023054608462360C3
:102AE00000F01AF8431C02D1236803B12B6038BDF3
:102AF000F0000020034613F8012B002AFBD1181A1E
:102B00000138704751F8040C002802DA04390B58D8
:102B1000C018043870470000064940F2F8020B68FC
:102B2000C2F20002002B08BF1346181808601846AE
:102B3000704700BFA4000020FEE700BFF8B500BF4B
:102B4000F8BC08BC9E467047F8B500BFF8BC08BC8E
:102B50009E46704773746172740D0A00656B7365ED
:102B60006E583A202564200920656B73656E593ACA
:102B7000202564200D0A00004300000014000020FE
:102B8000232D302B2000686C4C0065666745464756
:102B900000303132333435363738394142434445D9
:102BA0004600303132333435363738396162636448
:082BB000656600000000000052
:082BB80024D6FF7F010000009C
:102BC00000000000010203040102030406070809D3
:102BD000007A030A0000000000000000000000006E
:102BE00000000000000000000000000000000000E5
:102BF00000000000782B000800000000000000002A
:102C000000000000000000000000000000000000C4
:102C100000000000000000000000000000000000B4
:102C200000000000000000000000000000000000A4
:102C3000000000000000000014000020AD010008AA
:042C400089010008FE
:04000005080001DC12
:00000001FF
